:10F000000C9446780C9463780C9463780C94637831
:10F010000C9463780C9463780C9463780C94637804
:10F020000C9463780C9463780C9463780C946378F4
:10F030000C9463780C9463780C9463780C946378E4
:10F040000C9463780C9463780C9463780C946378D4
:10F050000C9463780C9463780C9463780C946378C4
:10F060000C9463780C9463780C9463780C946378B4
:10F070000C9463780C9463780C9463780C946378A4
:10F080000C9463780C9463780C94637811241FBEFD
:10F09000CFEFD0E1DEBFCDBF11E0A0E0B1E0E4EF03
:10F0A000F7EF02C005900D92A832B107D9F712E030
:10F0B000A8E2B1E001C01D92A639B107E1F70E94B4
:10F0C000AF7A0C94F87B0C940078DF92EF92FF9269
:10F0D0000F931F937B018C01FB010995D82EC8016A
:10F0E0000196F7010995982F8D2D1F910F91FF9093
:10F0F000EF90DF900895DF92EF92FF920F931F93AE
:10F10000D72E7A018C01FA010995C80101966D2D5F
:10F11000F70109951F910F91FF90EF90DF900895EF
:10F120009C01E199FECF3FBB2EBBE09A8DB30895C1
:10F130009C01E199FECF3FBB2EBB6DBB0FB6F8948F
:10F14000E29AE19A0FBE0895CF93DF9380E090E0BA
:10F1500060E978E70E9465789C01E0E0F0E0C0E0BB
:10F16000D0E004C08491C80FD11D3196E217F30797
:10F17000C8F382E090E060E978E70E94657820E0DB
:10F18000DF73C817D90709F421E0822FDF91CF91EF
:10F1900008950E94BC7B8095881F8827881F08954A
:10F1A0001F93CF93DF931FB70E946C7B80E091E0A9
:10F1B00064E00E945C7B809130010E94427BF89465
:10F1C00060912F017091300183E0FB018093680012
:10F1D000E8958091680080FDFCCFC1E3D1E0AB01F0
:10F1E000A1E0398120E0888190E0822B932BFA0105
:10F1F0000C01A0936800E89511244E5F5F4F2296A2
:10F20000F2E0C133DF0769F785E0FB018093680016
:10F21000E8958091680080FDFCCF81E180936800D3
:10F22000E8951FBF10922E0110922D01DF91CF9112
:10F230001F910895EF92FF920F931F93CF93DF9347
:10F2400080919502E82EFF24E701219710E093E0DA
:10F2500005C0EF5CFD4F808118279F5FE92FF0E02C
:10F26000EC17FD07B4F30091350260912D01709108
:10F270002E0161157105F1F4E9E3F2E020E030E0E0
:10F2800040E050E0A7E0220F331F441F551FAA950E
:10F29000D1F7808190E0A0E0B0E0282B392B4A2BF9
:10F2A0005B2B319782E0E533F80761F7309330014B
:10F2B00020932F0180912F01909130018050904F29
:10F2C00008F040C040E030E020E087EF9FEFE80E1C
:10F2D000F91E1CC0DC01AF5CBD4F87709070892B9C
:10F2E00019F419962C910FC0FB01EF5CFE4F822F91
:10F2F00087958827879519969C91892B80836F5FC6
:10F300007F4F4F5F2695401730F43F5F832F90E08B
:10F310008E159F05FCF270932E0160932D011F77CF
:10F32000CF5CDD4F8881181769F4403459F480911F
:10F330002D0190912E018050914011F40E94D078BF
:10F3400081E001C080E0CDB7DEB7E6E00C94E97B58
:10F3500088EE93E020E931E0F9013197F1F7019768
:10F36000D9F780912D0190912E01892B11F00E94E7
:10F37000D0780E94A4788823F9F00E94587B0E94DC
:10F380004E7B0E946C7B0E944E7B84E090E060E9A3
:10F3900078E70E946578019741F084E090E061E0B1
:10F3A00070E048E958E70E947B78E0912801F091ED
:10F3B0002901099581E008950E946C7B85E091E028
:10F3C0006BE00E945C7B80E00895EF92FF920F93C8
:10F3D0001F939C017B0108E918E780E090E0B901E8
:10F3E000A8010E947B7882E090E0B701A8010E940A
:10F3F0007B7884E090E061E070E0A8010E947B7877
:10F400001F910F91FF90EF9008958091370290E047
:10F41000A0E0B0E037E0880F991FAA1FBB1F3A9504
:10F42000D1F72091360230E040E050E0822B932B60
:10F43000A42BB52B27E0880F991FAA1FBB1F2A9565
:10F44000D1F72091350230E040E050E0822B932B41
:10F45000A42BB52B6091390270E07695762F662744
:10F46000779567952091380230E0622B732B0E94CC
:10F47000E57981E0089590919502943070F1809142
:10F4800034028530A9F0843019F40E94A8790BC0A9
:10F49000813019F40E941A7906C0833031F4993012
:10F4A00021F40E94057A882319F4E2E2F1E00CC00D
:10F4B000ECE1F1E080815D9BFECF8CB9319681E07B
:10F4C000E232F807B9F7089580815D9BFECF8CB9D1
:10F4D000319681E0E832F807B9F70895982F803F18
:10F4E00061F480912C01813011F40E943B7A1092DA
:10F4F000950281E080932C010895873F39F4809133
:10F500002C01813029F40E943B7A02C087FF03C09E
:10F5100010922C01089580912C018823F9F080919C
:10F520009502E82FF0E0EF5CFD4F9083982F9F5FEE
:10F5300090939502933070F080913102882341F4CA
:10F5400080913202833121F480913302813411F0B1
:10F5500010922C01953610F010922C0108951F93F3
:10F56000F894A89528E10FB6F89421BD11BC0FBE00
:10F570008FEF82B989E080938A0081E880938B00C5
:10F5800080EA90E0909387008093860083E085BFB7
:10F59000109290008FE189B986E0809395002AB996
:10F5A0000E94B47B0E94707B0E94587B0E944E7B1D
:10F5B0000E946C7B0E944E7B0E94587B81E191E00F
:10F5C0006AE00E945C7B84E090E060E978E70E945A
:10F5D0006578019731F40E94C978882311F40E945C
:10F5E000A879ECE1F1E080815D9BFECF8CB931968A
:10F5F00081E0E232F807B9F710E00E94C978882369
:10F6000011F411E004C0112311F00E94A8795F9B4E
:10F61000F4CF5F9BFECF8CB10E946E7AEECF3FB7E6
:10F62000F894E2E6F0E09081282F22952F70907FE9
:10F63000292B20831E9A1E983FBF2FB7F894E2E62D
:10F64000F0E090818F70907F982B90831E9A1E9887
:10F650002FBF08951A980E940F7B88EC90E00197C5
:10F66000F1F708951A9A0E940F7B88EC90E00197B9
:10F67000F1F708958A3010F4805D01C0895A0E9424
:10F68000327B08951F93182F82958F700E943A7BCA
:10F69000812F8F700E943A7B1F9108951F9310E075
:10F6A00080E20E94327B1F5F1031D1F71F910895D5
:10F6B00080E80E942A7B08951F93CF93DF93EC018B
:10F6C000162F04C089910E94327B11501123D1F76B
:10F6D000DF91CF911F91089580EC0E942A7B0895BD
:10F6E000809161008F60809361001092620082B10E
:10F6F000846482B988EE93E020E931E0F901319722
:10F70000F1F70197D9F79FB7F89480916200807F55
:10F710008360809362001E9A1E989FBF9FB7F894E3
:10F7200080916200807F8260809362001E9A1E98A2
:10F730009FBF80E293E00197F1F788E20E942A7B65
:10F7400085E38A95F1F78CE00E942A7B84E00E9491
:10F750002A7B81E00E942A7B82E00E942A7B80E251
:10F760009EE40197F1F7089581B3806C81BB8D9879
:10F770009598979A969A0895969800000000000030
:10F78000969A00000000000020E030E080B3220FD5
:10F7900090E045E0969587954A95E1F78170282B92
:10F7A0009798000000000000979A000000000000F9
:10F7B0003F5F383059F7822F08952A883988488862
:10F7C0005F846E847D848C849B84AA84B984C8847D
:10F7D000DF80EE80FD800C811B81AA81B981CE0F74
:10F7E000D11D0FB6F894DEBF0FBECDBFED01089559
:04F7F000F894FFCFBB
:10F7F400424C4B200057524F4E4720434845434B01
:10F8040000424F4F544C4F4144455200F0001341C5
:08F8140002F7F000134110F7A8
:040000030000F00009
:00000001FF
